{
  "_format": "hh-sol-artifact-1",
  "contractName": "SimpleStorage",
  "sourceName": "contracts/simple-storage.sol",
  "abi": [
    {
      "inputs": [],
      "stateMutability": "nonpayable",
      "type": "constructor"
    },
    {
      "anonymous": false,
      "inputs": [
        {
          "indexed": true,
          "internalType": "address",
          "name": "oldOwner",
          "type": "address"
        },
        {
          "indexed": true,
          "internalType": "address",
          "name": "newOwner",
          "type": "address"
        }
      ],
      "name": "OwnerSet",
      "type": "event"
    },
    {
      "anonymous": false,
      "inputs": [
        {
          "indexed": false,
          "internalType": "uint256",
          "name": "newValue",
          "type": "uint256"
        }
      ],
      "name": "ValueUpdated",
      "type": "event"
    },
    {
      "inputs": [],
      "name": "getValue",
      "outputs": [
        {
          "internalType": "uint256",
          "name": "",
          "type": "uint256"
        }
      ],
      "stateMutability": "view",
      "type": "function"
    },
    {
      "inputs": [],
      "name": "message",
      "outputs": [
        {
          "internalType": "string",
          "name": "",
          "type": "string"
        }
      ],
      "stateMutability": "view",
      "type": "function"
    },
    {
      "inputs": [],
      "name": "owner",
      "outputs": [
        {
          "internalType": "address",
          "name": "",
          "type": "address"
        }
      ],
      "stateMutability": "view",
      "type": "function"
    },
    {
      "inputs": [
        {
          "internalType": "string",
          "name": "_message",
          "type": "string"
        }
      ],
      "name": "setMessage",
      "outputs": [],
      "stateMutability": "nonpayable",
      "type": "function"
    },
    {
      "inputs": [
        {
          "internalType": "uint256",
          "name": "_value",
          "type": "uint256"
        }
      ],
      "name": "setValue",
      "outputs": [],
      "stateMutability": "nonpayable",
      "type": "function"
    },
    {
      "inputs": [
        {
          "internalType": "uint256",
          "name": "_value",
          "type": "uint256"
        }
      ],
      "name": "setValueWithOwner",
      "outputs": [],
      "stateMutability": "nonpayable",
      "type": "function"
    }
  ],
  "bytecode": "0x6080604052348015600e575f5ffd5b50600180546001600160a01b031916339081179091556040515f907f342827c97908e5e2f71151c08502a66d44b6f758e3ac2f1de95f02eb95f0a735908290a36104f78061005b5f395ff3fe608060405234801561000f575f5ffd5b506004361061006f575f3560e01c8063552410771161004d57806355241077146100b05780638da5cb5b146100c3578063e21f37ce14610108575f5ffd5b80632096525514610073578063272a097914610088578063368b87721461009d575b5f5ffd5b5f546040519081526020015b60405180910390f35b61009b6100963660046102a0565b61011d565b005b61009b6100ab3660046102b7565b6101af565b61009b6100be3660046102a0565b610175565b6001546100e39073ffffffffffffffffffffffffffffffffffffffff1681565b60405173ffffffffffffffffffffffffffffffffffffffff909116815260200161007f565b610110610214565b60405161007f9190610325565b60015473ffffffffffffffffffffffffffffffffffffffff1633146101755760405162461bcd60e51b81526020600482015260096024820152682737ba1037bbb732b960b91b60448201526064015b60405180910390fd5b5f8190556040518181527f4273d0736f60e0dedfe745e86718093d8ec8646ebd2a60cd60643eeced5658119060200160405180910390a150565b60015473ffffffffffffffffffffffffffffffffffffffff1633146102025760405162461bcd60e51b81526020600482015260096024820152682737ba1037bbb732b960b91b604482015260640161016c565b600261020f828483610407565b505050565b6002805461022190610384565b80601f016020809104026020016040519081016040528092919081815260200182805461024d90610384565b80156102985780601f1061026f57610100808354040283529160200191610298565b820191905f5260205f20905b81548152906001019060200180831161027b57829003601f168201915b505050505081565b5f602082840312156102b0575f5ffd5b5035919050565b5f5f602083850312156102c8575f5ffd5b823567ffffffffffffffff8111156102de575f5ffd5b8301601f810185136102ee575f5ffd5b803567ffffffffffffffff811115610304575f5ffd5b856020828401011115610315575f5ffd5b6020919091019590945092505050565b602081525f82518060208401525f5b818110156103515760208186018101516040868401015201610334565b505f604082850101526040601f19601f83011684010191505092915050565b634e487b7160e01b5f52604160045260245ffd5b600181811c9082168061039857607f821691505b6020821081036103b657634e487b7160e01b5f52602260045260245ffd5b50919050565b601f82111561020f57805f5260205f20601f840160051c810160208510156103e15750805b601f840160051c820191505b81811015610400575f81556001016103ed565b5050505050565b67ffffffffffffffff83111561041f5761041f610370565b6104338361042d8354610384565b836103bc565b5f601f841160018114610464575f851561044d5750838201355b5f19600387901b1c1916600186901b178355610400565b5f83815260208120601f198716915b828110156104935786850135825560209485019460019092019101610473565b50868210156104af575f1960f88860031b161c19848701351681555b505060018560011b018355505050505056fea264697066735822122087c53b2b8c9c9e09358c9612252b10ba18e06239b01ea8b9667404b7488131c164736f6c634300081b0033",
  "linkReferences": {},
  "deployedLinkReferences": {}
}